:020000022000DC
:1060000000000120396202009162020093620200E6
:10601000956202009762020099620200000000008F
:106020000000000000000000000000009B62020071
:106030009D620200000000009F620200A162020057
:10604000F1880200A7620200318D0200AB620200FB
:10605000AD620200AF620200AD8B0200558D0200FE
:10606000B5620200B7620200B9620200BB620200C0
:10607000BD620200BF620200C1620200C362020090
:10608000C56202007D6B0200C9620200CB620200A1
:10609000196C0200CF62020039C00200D362020014
:1060A000D5620200D7620200D9620200DB62020000
:1060B000DD620200DF620200A3620200A36202004E
:1060C000E1620200E3620200E5620200E7620200B0
:0C60D000E9620200EB620200ED620200D7
:1060DC00354936480A1A02D0072291438D46344975
:1060EC0034480A1A06D00722914381F30988022208
:1060FC0082F3148830483149314A00F044F8314871
:10610C003149324A00F03FF831483249324A00F006
:10611C003AF832483249334A00F035F832483349BC
:10612C00334A00F030F833483349344A00F02BF846
:10613C0033483449344A00F026F8344834490022B4
:10614C0000F02CF833483449002200F027F833488B
:10615C003349091A082902DB002202604160314AE6
:10616C0090471F481F49884205D00268043003B489
:10617C00904703BCF7E700208646EC460020002140
:10618C00294A9047FEE7884207D0521A05D0037877
:10619C0001300B700131013AF9D17047884202D0BD
:1061AC0002700130FAE770470000012000E0002087
:1061BC000000012000000120F0D102007C22002010
:1061CC00C8220020F0620200F06202000AC602003F
:1061DC00F0D102007C2200207C22002080C702002B
:1061EC0080C7020080C7020080C7020080C702007F
:1061FC0080C7020080C7020080C70200F0D10200F5
:10620C003CD20200C8220020C8220020C822002054
:10621C00302E0020302E0020302E0020302E00207A
:10622C00304E00205D620200F59502000F484FF0E1
:10623C000701884385460E4880470E48016841F4A3
:10624C0070010160BFF34F8FBFF36F8FFFF740BF3B
:10625C0009480A490A4A884207D0521A05D00378DD
:10626C0001300B700131013AF9D170470000012067
:10627C00C583020088ED00E01CC702001822002034
:10628C007C220020FEE7FEE7FEE7FEE7FEE7FEE7E6
:10629C00FEE7FEE7FEE7FEE7FEE7FEE7FEE7FEE7CA
:1062AC00FEE7FEE7FEE7FEE7FEE7FEE7FEE7FEE7BA
:1062BC00FEE7FEE7FEE7FEE7FEE7FEE7FEE7FEE7AA
:1062CC00FEE7FEE7FEE7FEE7FEE7FEE7FEE7FEE79A
:1062DC00FEE7FEE7FEE7FEE7FEE7FEE7FEE7FEE78A
:0462EC00FEE700BF0A
:1062F000037813F0030F03F0040202D012B9104622
:106300007047B2B103F00303012B03D0022B09D075
:10631000012070470A6800880232C0F383100244EB
:106320000A60F5E70B684288023303EB92130B60B7
:10633000EEE70B684288013303EB92130288F4E71F
:106340002DE9F04F87B000230446851C0DF10700AE
:106350000F4690468DF8073000F050FE454806681D
:106360003E60D0E90132134401339B1B824600F2A8
:106370001C4600F5836900F21447AB421BD3002290
:10638000B8F1000F70D0052363F3070264F389129C
:10639000DAF80010DAF808309DF807000B400333F4
:1063A0000D444AF82320CAF8005000F04BFE0120AB
:1063B00007B0BDE8F08F0121304601F0A3FC48464C
:1063C00001F0B6FC384601F0B3FCDAF80400DAF864
:1063D00008B0029000EA0B0003300AEB800002A92B
:1063E000FFF786FF029B50BB0BEA03020AEB820217
:1063F00003F1020CD2680392013303EA0B0B0AEBA0
:106400008B0B02F00302012ACDF808C0DBF80C1058
:1064100022D0022A16D08346384601F08CFC10B1F7
:10642000029BCAF804305946304601F06BFCDAE9A9
:1064300001231344DAF8002001339B1A9DE70BEA8D
:106440000300C9E7BDF80E309B0903334FEA114B37
:106450000CEB93030293DFE7BDF80C30C3F3831317
:106460004FEA114B6344F5E7062363F3070264F335
:106470009F528DE798230020034BD3E90030C31AC5
:1064800058425841704700BF982300202DE9F0473B
:1064900086B0FFF7F1FF0646002840F0F3807A4D02
:1064A000C5F81804BFF34F8F6868AC6802902040AD
:1064B000033005EB800002A9FFF71AFF029B074695
:1064C00000285FD104EA0302991C013305EB820224
:1064D000234005EB8303D268DB68049302F00303D7
:1064E000022B0392029162D1BDF80E3067484FEA49
:1064F0009319B9F1500FCA4628BF4FF0500A6AF3FA
:106500008F130AF10801ADF80E3001F039FE804614
:10651000002800F0A58001F062FE03A93B46082296
:10652000404601F06FFE029924EA01060136B600EA
:10653000B24535D95FFA8AFA7EB3F6B2AAEB060AFB
:10654000214003315FFA8AF4B246514E05EB8101D6
:1065500008235246404601F055FE36B10AF10803C1
:1065600022463146404601F04DFE029B09F10309E7
:1065700003EB99030293D5F81834002B4AD1D5F8D0
:10658000104458E02A689A4204D86A60304606B03F
:10659000BDE8F08704EA03008AE73D493446D7E7BF
:1065A000214003310823524605EB8101DAE7012B34
:1065B00056D1BDF80C303548C3F38311062928BFE6
:1065C000062161F3891302318900ADF80C3001F026
:1065D000D7FD8046002843D001F001FE3B4608224B
:1065E00003A9404601F00EFEBDF80C20C2F3831251
:1065F000BB00974203F10803BDD202994A1C214017
:106600000331029205EB81010422404601F0FAFDBC
:106610000137E9E7404601F0E6FDFFF72DFF80F086
:106620000100C6B2B2E7637A23B1236841461B6812
:10663000204698476468002CF5D1404601F0D3FD10
:106640000DF107008DF8074000F0D8FCD5F818349C
:106650000BB9029B6B609DF8070000F0F3FCDCE7D0
:10666000D5F8104444B90B4B0B491888000440F08E
:10667000020000F06BF8D0E7236820469B6898473B
:106680006468EFE7002681E798230020DCC602005B
:10669000A42300203022002080C702002DE9F74FFC
:1066A000284C80460F46924601A9012218469B4677
:1066B000D4F80890FFF744FE80B3019D0026A91C82
:1066C0005E4506EB010233D100211F4801F0E4FAD8
:1066D00080F310006A1C02EA090204EB8202000443
:1066E00005EA0903033340EA1840D06014F8232078
:1066F00068F3C50204F8232034F8232066F38912D6
:1067000024F8232054F8232067F39F2244F8232001
:1067100002F0F80242F0010204F8232094F8203439
:106720001BB1FFF7B3FE0028FBD103B0BDE8F08F2B
:1067300009EA020204EB82025AF82630D3600136DD
:10674000BEE700BF98230020B427002000231A468C
:10675000FFF7A4BF07B50123019201AAFFF79EFF2F
:1067600003B05DF804FB07B5CDE9002302236A46B8
:10677000FFF794FF03B05DF804FB1FB5CDE90123DB
:10678000069B039301AA0323FFF788FF05B05DF87A
:1067900004FB0000084A38B50123D2F8104482F8FF
:1067A00020341D4604B938BD2368657220465B68F5
:1067B00098476468F6E700BF982300202DE9F04F62
:1067C000394E87B04FF00009384B1B785FFA89F5D6
:1067D000AB4202D807B0BDE8F08F354BD3F800A02C
:1067E0001AF835000124D6E9001EA0F12002C0F1FC
:1067F000200304FA02F224FA03F3134304FA00FC20
:10680000009301EA0C030293009B0EEA0303039337
:10681000DDE9022313430AEBC50B41D0009B21EABB
:106820000C012EEA0303C6E9001302F0B5F91AF8C9
:1068300035502049A5F12002C5F1200304FA02F2E7
:1068400024FA03F31343D1E900C2AC40134004EA35
:106850000C0105930024C3B2CDE90034009A0491E1
:10686000C5F12003A5F1200122FA03F302FA01F891
:1068700048EA03081346AB401F46DDE904344445AB
:1068800008BFBB420CD1DBF804304BB19BF80110C0
:106890004A1E51425141081A4142414128469847F7
:1068A00009F1010990E700BFF0270020BC27002074
:1068B000F8270020E82700202DE9F04180462048F5
:1068C00000F08CFBD0BB0125A8F12004C8F1200307
:1068D00025FA03F305FA04F41C431A4BD3E900121A
:1068E00005FA08F501EA050602EA040756EA070078
:1068F0001E461DD1404602F04FF9134BD3E900125A
:1069000088B129432243C3E90012D6E900231C437E
:106910000E4B0B4819681543C6E900540022BDE828
:10692000F04100F015BB21EA050122EA0402EAE782
:1069300021EA050522EA0404C3E90054BDE8F08118
:10694000C4270020F0270020E8270020C0270020CF
:10695000042A2DE9F34105460C4616463AD902F0C1
:1069600057F8D8B11C4B1D491D601D4BDFF88480C2
:106970001C701C4B00221E600023C1E900231A4931
:10698000C1E90023013CE4B200260327FF2C0CD10F
:10699000164A1748002100F0C9FA03E001F0FEFF93
:1069A0000028DFD002B0BDE8F08123B205EBC302BE
:1069B00001A992788DF8052015F833008DF806604E
:1069C00042468DF8047002F02DF8013CE4B2002834
:1069D000DCD0E7E70720E5E7F8270020E8270020DC
:1069E000BC270020C0270020F0270020BD67020040
:1069F000A8C70200B968020070B5084D084E00240F
:106A00002B789C4201D3002070BD3368012113F81C
:106A1000340002F07BF80134F2E700BFBC2700200D
:106A2000F82700201FB50021039001AA44F20100BD
:106A3000CDE9011100F004F805B05DF804FB000099
:106A400010B572B6FFF7A6FEFFF720FD0028FBD1B8
:106A5000104C11492088000440F00100FFF776FE39
:106A60000E4B1B68DB0700D500BE20880C490004D4
:106A700040F00200FFF76AFEBFF34F8F09490A4B4F
:106A8000CA6802F4E0621343CB60BFF34F8F00BFCC
:106A9000FDE700BF30220020ACC70200F0ED00E0AF
:106AA000B8C7020000ED00E00400FA05094A537877
:106AB00091780133DBB2994208BF002311789942E3
:106AC0001FBF03705078182303FB002014BF04304D
:106AD00000207047FC27002073B5054600240DF107
:106AE00007000E468DF8074000F088FA0DF1060009
:106AF000FFF7DCFF90B10670094B9DF8062045605A
:106B00005A709DF8070000F09DFA24B9054B4FF428
:106B10008012C3F80021204602B070BD0424F0E7C3
:106B2000FC27002000E100E0024B4FF43C6043F002
:106B300001031847D0C7020038B50C4B0C4C4FF47A
:106B40000032C3F8802001254FF48033C4F8483365
:106B5000C4F808336560FFF7E7FF064BA560002423
:106B60001C60FFF7E1FF044B1C7038BD00E100E042
:106B7000001001401829002009290020F8B51F4BFA
:106B80001F491B680025C1F84051C1F84451C1F8A4
:106B90004851C1F84C51C1F80051C1F804514BB3F0
:106BA000D1F8044517490968641A24F07F442F4638
:106BB0001A68A24209D8A41A15441A7CDE691AB1CF
:106BC0001F74D3E905209047AEB90F4A0F4B1178D7
:106BD0001B788B4205D10133DBB2022B08BF0023A7
:106BE000137012780A4B43F822500A4B4FF480126C
:106BF000C3F80021F8BD3346DAE700BF1C290020A6
:106C00000010014018290020152900201429002017
:106C10000C29002000E100E02DE9F04FA04AA14935
:106C200013780978A04D994285B03CD00133DBB28E
:106C3000022B08BF002313709C4912789C4B0F68ED
:106C400053F822003B1823F07F4300220B602B688F
:106C500016461446944613B942B12B6006E01968F3
:106C600081420ED902B12B60091A19604FF0010858
:106C70002B68DFF844A201930027BEB9DFF840B2C9
:106C800066E0401A0C44D968C3F800C0D3F81CE091
:106C900031B13A1922F07F42C3E90121DE611E467B
:106CA00001227346D7E70026B046E1E73446F6698D
:106CB0007E4A63681268DFF80CC2A068991A21F056
:106CC0007F41614500F2A5800144216001222274C8
:106CD0002A680023C4E90133E361002A40F0A2805E
:106CE0002C60CAE75A1C9BF80210D2B291428BF872
:106CF000002004BF00228BF80020182202FB03B3FF
:106D00001A799C68022A1CD0032A12D0012A1FD1AA
:106D1000207CE8B9D3E90312A2605A69E2609A695B
:106D2000644BA2611B78002B0CBF0B4603466360CB
:106D3000BEE700222B681146002B66D142B12B60C2
:106D400006E029680A468946002A59D1002323749F
:106D50009BF800309BF801209A42C3D12B682FB9D1
:106D6000019A9A4202D1B8F1000F43D0002B73D0A0
:106D7000D3F800A0504D4D4BD5F804751C68DFF8D2
:106D800048813E1B98F8003026F07F4603369BB9B9
:106D90004FF48033C5F84433C5F80433474B4FF400
:106DA00000324FF00109C3F880211A60C5F8009045
:106DB000FFF7BAFE88F80090B2452CBF5444A419DE
:106DC00024F07F44C5F84045D5F80435DB1B23F09B
:106DD0007F43E41B033324F07F44A3420AD9D5F850
:106DE0000435C5F84035FFF79FFE344B4FF40032B1
:106DF000C3F800212F4B00221A7005B0BDE8F08FB8
:106E000094422CD09146D2699EE719740122DB6925
:106E100092E7D31A23F07F43834234BFC31A00237F
:106E2000236053E721681368994213D8591A1160F7
:106E3000E26155E7091AD8691A4638B1034618685D
:106E40008842F7D3401A1860184613462160E06163
:106E5000DC6112E71346F2E7FFF76EFECAE74C4526
:106E600011D1CB692B6073B9DFF840E00120CDE987
:106E70000212CAF80800CEF800300E4B1870FFF767
:106E800053FEDDE902121368D269C9F81C2012B161
:106E90001068034413602B68994218BF012755E717
:106EA00014290020152900201C2900201829002061
:106EB0000C290020082900200010014000E100E01A
:106EC000FC270020FEFF7F000929002008B5FFF7FE
:106ED00033FE104B00200B2218809A700E4B186066
:106EE0000E4B18700E4B18700E4B4FF48012E021B1
:106EF000C3F8802183F814131A6002F18042A2F5CE
:106F00006F22C2F8080583F81113074BD2F8042545
:106F10001A6008BDFC2700201C290020142900202D
:106F20001529002000E100E018290020074B9B787C
:106F30004BB132B128B10368187C20B959745A6139
:106F40007047072070470820704700BFFC270020CB
:106F50002DE9F7431E4FBB7805460E469046A3B376
:106F600098B304292FD943697BB3437C0024012BB8
:106F70000DF107000CBF8946A1468DF8074000F0CF
:106F80003DF80DF10600FFF791FDD0B1012303702C
:106F9000104B4560D3F80435C0E90498C0E90236C7
:106FA0009DF806307B709DF8070000F04BF824B97F
:106FB000094B4FF48012C3F80021204603B0BDE80E
:106FC000F0830424EFE70724F7E70824F5E700BF80
:106FD000FC2700200010014000E100E0064A927802
:106FE0003AB130B1426922B1002202740221FFF7A6
:106FF00073BD0820704700BFFC27002070B5EFF379
:10700000108672B60C4A946801239CB993600B4BAE
:107010000B4DD3F8801029401160C3F88050D3F88D
:10702000841051604FF0FF32C3F88420047006B919
:1070300062B670BD0370FAE72029002000E100E08D
:10704000FC06FFBD084B9A6810B55AB150B9EFF372
:10705000108172B6054A1C6814605C6854609860C0
:1070600001B962B610BD00BF2029002000E100E098
:1070700070B5064D0646002455F8043B0BB130466A
:1070800098470134042CF7D170BD00BF3829002087
:10709000033080B240F2FD33984230B51FD8124B16
:1070A0001A783AB91C895D892C440444A4B2B4F519
:1070B000806F0AD31A7DA2B99A8BDC8B22440244DA
:1070C00092B2B2F5806F0CD201220A8014461422CB
:1070D00002FB04335A8910445881002030BD092036
:1070E000FCE70720FAE700BF6C2900200B4A0C4B95
:1070F0005188142000FB0131CB6833B90420496862
:1071000010700122074800F0DBBE0523064913700A
:1071100002238B80012200230968F3E75029002015
:107120006C290020682200209829002007B5002340
:1071300005490093054A09680548082300F03CFE0C
:1071400003B05DF804FB00BF98290020E4C70200EB
:107150006822002007B50023009301460823034A54
:10716000034800F029FE03B05DF804FBDCC7020011
:107170006822002013B500230C4600930146042327
:10718000074A084800F018FE38B9074B142202FBE2
:1071900004340123237402B010BD0E20FBE700BFAE
:1071A000D8C70200682200206C29002037B50A48A1
:1071B0000A4B42689C88196853880325033305707D
:1071C0009BB2002000909B0001EB8401044800F07A
:1071D000F3FD03B030BD00BF5029002098290020E6
:1071E0006822002010B50146044800F0C4FC1C22AF
:1071F0000446002105F0D4F9204610BD7C22002071
:107200004388033300EB8303994209D382884FF606
:10721000FF739A4206D00088B0FA80F040097047A8
:107220000220704701207047154A142303FB0020F9
:1072300070B50B6844680D4604F58056ABB15C88A8
:10724000033403EB8404B4420DD2236801330AD023
:1072500031462046FFF7D4FF01280BD010F0FF0F76
:1072600005D00228EFD1002003E00834EBE72C60C2
:10727000012070BD6388033304EB8304E3E700BFA0
:107280006C290020436873B504460D466BB3244A4D
:10729000D1688B4229D31269934226D813F0030296
:1072A00023D120490089098988421ED12068996824
:1072B00088421AD11C494868834203D900F580509E
:1072C00083420ED38A6993420DD902F580529342CC
:1072D00009D201232B800020B0FA80F0400902B0CF
:1072E00070BD1346F6E70A20F6E700232B801E4602
:1072F000019601A92888FFF797FF30B92B88013341
:107300009BB2012B2B80F3D9E9E7019B2268996896
:107310009142EED16360034B1B892381DFE700BFFD
:1073200068220020502900206C2900202DE9F84314
:107330001C461C4B1B7806460F4615466BB372B3B2
:107340006CB3DFF868804FF01409A388012B01D9D2
:107350000A2020E009FB03F318F803302BB921467B
:10736000A088FFF761FF20B92060A3880133A380C4
:10737000EBE723681EB1998832889142EFD11FB1A3
:1073800019883A889142EAD19A68C5E90023064BE8
:107390001B892B810020BDE8F8830220FBE7052034
:1073A000F9E700BF48290020502900206C2900205F
:1073B00008B5074B191D5888FFF736FF18B1BDE80F
:1073C0000840FFF7F3BEBDE80840FFF78FBE00BFDF
:1073D000502900202DE9F04FA04FDFF8A49289B08A
:1073E0000646B8463B6823B949469D4800F0FDFB78
:1073F0003860D8F8005029784B1E052B00F2FA802F
:10740000DFE813F006005E005E00EE00EE005C01B7
:1074100026B1944B00225A600124ECE02B79032B17
:107420001DD8DFE803F015022A358F490B78022BAF
:10743000084619D00B7D022B4FF0010316D1142200
:107440005343C2180020C8545068FFF783FE03E07E
:1074500001232B71FFF76AFE002800F0BC80814BEE
:1074600000225A600E24C6E00023E8E77D4A13702C
:107470000023536041F61D54BDE07C497C48002345
:1074800002222B718A800122096800F019FDE3E7CE
:10749000764C00262E712068734DFFF75BFE754B0E
:1074A000D4F800C05A8814235343EA18EE545168A4
:1074B0002160A188C2F804C011810222A280CBE71A
:1074C000B5F814A0AA7DDFF8A0B1AEB1022AEB880E
:1074D00006D9142101FB0AB1DA1C088902440A8189
:1074E000142202FB0ABAC3F57F43BAF80A20FD331F
:1074F0001344AAF80A308FE7142303FB0AB3188950
:107500005C6804EB8004062A68D8DFE802F0274DA7
:1075100035431D59040041F61D54AA7DEB88022A0B
:1075200006D9142101FB0AB1DA1C088902440A8138
:10753000142202FB0ABAC3F57F43BAF80A20FD33CE
:107540001344AAF80A3056E04B484C4900234360E4
:10755000AB690360FFF796FE002871D00223AB757C
:10756000002300930423EA182146414800F024FC3C
:10757000002830D00E24D0E72B69002B14BF032342
:107580000123AB750023009305F10C02042304F1E1
:107590000801EAE70123AB750022EB8800929B000B
:1075A0002A6904F10C01E0E703290CBF0523062337
:1075B000AB7500230093042305F10802E118D4E71A
:1075C0000623AB752D4B19882B4B5868FFF7D2FD5E
:1075D00004460028A1D109B0BDE8F08F0F249CE734
:1075E000002E7FF419AF2B79012B4BD0E3B1022B86
:1075F0003FF440AF0F241422002103A804F0D0FF71
:1076000041F61D539C4208BF0024D8F80030049472
:107610001A78023A042A00F20581DFE812F0E60047
:10762000F20015011D01240102232B710DF10A0145
:10763000EB68039303A8CDE90466FFF723FE08B9BE
:107640000A24D8E70498BDF80A108388EB800388E1
:107650002B81FFF78FFD044627E000BF682900203B
:107660007C220020482900206C2900209829002035
:1076700068220020502900202C290020A029002069
:1076800060290020DFF8FCA103AA53463146A81D5B
:10769000FFF74CFE044658B9BAF804100498FFF7F7
:1076A00069FD04460A2C3FF4E5AE002CA3D192E715
:1076B00008223146504604F073FFF3E7002E7FF4B2
:1076C000ABAE6B4B1A7BAAB11E731A78013A062A2D
:1076D00090D801A151F822F07F770200A57702002F
:1076E000C3770200C9770200F5750200CF77020068
:1076F000E17702001A78072AE7D801A151F822F0B1
:1077000021770200CB760200CB7602004777020099
:107710005B7702007B7702007B77020043770200F1
:107720001A89544901321A8100225A801A730A7840
:10773000B2FA82F252099A720A7DB2FA82F25209C0
:10774000DA72012207E04C4958688A88408803327F
:1077500002448A8002221A70B7E7464C5A8846498A
:10776000142505FB0242086854685060888810811F
:1077700002228A800C600622EDE70722EBE79A7A64
:1077800032B9DA7A8AB900221A705A805A6071E6E0
:10779000384900229A72CA68002AF2D1097C00296D
:1077A000EFD05A80FFF704FE55E70022DA72314A23
:1077B000116A0029E7D192F82420002AE3D001229F
:1077C000EFE7FFF7F3FC46E7FFF790FC43E7294AB2
:1077D0005B88142101FB03235868FFF7BBFC3AE7E1
:1077E00000225A60FFF7A2FC35E701228DF80C2039
:1077F0001A89ADF818209A88DB68ADF81A2005932D
:1078000010E002228DF80C201A89ADF818209A8811
:10781000ADF81A20DA689B7D05929A1F53425341B6
:107820008DF81C3003A8FFF723FC002649461348B7
:10783000C8F8006000F004FA0121114800F06DFA68
:1078400000287FF4CFADC6E603228DF80C20DA883D
:10785000ADF818201A89CFE70422DB888DF80C20B8
:10786000ADF81830DEE705238DF80C30DAE700BFFD
:10787000502900206C290020982900207C2200201B
:1078800094290020A42900204068FFF7A3BD000030
:1078900008B50121044800F02AFA18B9BDE80840EB
:1078A000FFF798BD08BD00BF942900202DE9F341E2
:1078B0009846354B1B7806460D46002B5BD00029B9
:1078C0005BD009884FF6FF73994258D06B88002B24
:1078D00055D06B689B0754D14AB92F890DF102012D
:1078E0003846FFF7D5FB30B102B0BDE8F081138810
:1078F0005788ADF8023001A8FFF774FC044658B968
:10790000BDF80230214A142101FB032358890338B2
:10791000C01B58810820E7E700238375BDF80230BB
:1079200083826B68036180F800800121184800F0B1
:10793000E9F92B882381B8F1030F6B88A38004BF7A
:107940000423A3754FF0000508BF3368E06008BF4B
:10795000A361E780658101A90E4800F036F936B1D0
:10796000E36833600C4B75601B89B5723381FFF798
:107970008FFF0020B8E70220B6E70520B4E7042017
:10798000B2E70320B0E700BF482900206C2900209F
:10799000642900207C2200205029002073B50D4668
:1079A0000446C8B1C1B10DF10601FFF76BFCA8B1E7
:1079B0000B4BBDF806006668142202FB0030012163
:1079C0000C3000F09FF963682E600C336B6001236C
:1079D000A372002002B070BD0520FBE70A20F9E782
:1079E0006C29002013B50446A8B10DF10601FFF77C
:1079F00049FC90B10B4ABDF80630142101FB03236A
:107A0000DA6862B1A27A52B1DA680020013ADA602B
:107A1000A07202B010BD0520FBE70A20F9E706209E
:107A2000F7E700BF6C2900200B4B1B7837B50446E5
:107A30000D4663B168B10DF106012846FFF728FB3A
:107A400018B9BDF806302380658003B030BD022030
:107A5000FBE70520F9E700BF48290020104B1B7801
:107A600010B5B3B1B8B10288022A16D80D494388BF
:107A7000142404FB02129C1C51898C420DDAC3F5BC
:107A80007F43FD330B44538100230380438018461A
:107A900010BD0220FCE70520FAE70420F8E700BF4C
:107AA000482900206C29002002230022FFF7FEBE97
:107AB00012B10223FFF7FABE0520704718B1032365
:107AC0000022FFF7F3BE052070470000104B1B7823
:107AD00013B50446ABB14FF6FF73984213D001A81B
:107AE000FFF780FB88B10523037001230371C48075
:107AF00001A9084800F069F8FFF7CAFE002002B0AB
:107B000010BD0220FBE70420F9E70820F7E700BFDB
:107B1000482900207C22002007B5ADF80600ADF80A
:107B200004100DF1060001A9FFF700FC03B05DF899
:107B300004FB07B51346ADF806000A4600200DF118
:107B40000601FFF7F3FB03B05DF804FB07B513462E
:107B5000ADF806000A460DF106000021FFF7E6FB2E
:107B600003B05DF804FB20B119B103680B6000207D
:107B700070470520704737B550E8013F9DB2C48972
:107B800025448489A54228BF2D1B0489A54202BF34
:107B9000BFF32F8F002207E0C5EA030540E8015438
:107BA000002CE9D14FF001028DF803200193019BD5
:107BB0009DF803200B6002F0FF0322B10B880068E0
:107BC000184403B030BD1846FBE70A884B889A4238
:107BD00009D150E8012FC2EA024240E80123002BFC
:107BE000F7D1012070470020704737B550E8023FB9
:107BF0001FFAA3F5C488A54202BFBFF32F8F00224E
:107C00000DE0C48925448489A54228BF2D1BC3EA01
:107C1000054540E80254002CE8D14FF001028DF8F0
:107C200003200193019B9DF803200B6002F0FF03EA
:107C300022B14B880068184403B030BD1846FBE7FA
:107C40000A884B889A4209D150E8022FC2EA2242A0
:107C500040E80223002BF7D1012070470020704735
:107C600001F01F024B090121914000EB830000F05D
:107C70001DB801F01F0301229A404B0900EB83005D
:107C8000D14300F029B84B0901F01F0150F823003F
:107C9000C84000F00100704750E8002F0B4640E854
:107CA000003C9CF0000FF7D11046704750E8003FB1
:107CB00043EA010240E8002C9CF0000FF6D1104688
:107CC000704750E8002F02EA010340E8003C9CF0B6
:107CD000000FF6D11046704750E8003F03EA01025A
:107CE00040E8002C9CF0000FF6D11046704750E899
:107CF000002F02EB010340E8003C9CF0000FF6D19E
:107D00001046704750E8003F03EB010240E8002CAA
:107D10009CF0000FF6D11046704750E8003FA3EBEF
:107D2000010240E8002C9CF0000FF6D1104670478D
:107D30000121FFF7BBBF0021FFF7C3BF37B50546E1
:107D400000240DF107008DF80740FFF757F92A6866
:107D50006B68116899420ED9481E106011F8014CE9
:107D6000EB68A98A01FB0434AB6811791B1ADBB2FA
:107D7000994238BF13719DF80700FFF763F9204659
:107D800003B030BD37B5054600230DF107000C46A2
:107D90008DF80730FFF732F92A681368591C116013
:107DA000E968641AA98AB4FBF1F41C709DF8070015
:107DB000FFF748F903B030BD2DE9F34178B9354BF1
:107DC000354A1888354B0E2400040094344940F09D
:107DD0000100FEF7D2FC204602B0BDE8F0813AB9BE
:107DE0002C4B304A18882D4B0E2400040094EDE7EC
:107DF000D0F800C0BCF1000F07D1264B2A4A1888E2
:107E0000264B082400040094E0E73BB9214B274AA5
:107E10001888224B092400040094D7E74768D7F854
:107E20000480B3FBF8F708FB17373FB1194B204A22
:107E300018881A4B092400040094C7E78F0707D05D
:107E4000144B1C4A1888154B102400040094BDE7FD
:107E500012F0030F07D00F4B174A18880F4B10244E
:107E600000040094B2E7C768B9420BD34C1E056901
:107E70001C44AC4206D8DCF80C40A44602B0BDE875
:107E8000F0416047034B0D4A1888044B102400044E
:107E900000949BE75422002096C80200FBC7020012
:107EA0009BC8020018C902000CC90200CBC802001E
:107EB0001EC9020048C9020060C9020083C902004D
:107EC000F7B570B9254B264A1888264B0E240004B6
:107ED0000094254940F00100FEF74FFC204603B016
:107EE000F0BDD0F800C0BCF1000F07D11B4B1F4AFA
:107EF00018881C4B082400040094EAE73AB9174B91
:107F00001B4A1888174B092400040094E1E74768CE
:107F1000D7F800E00EF1FF370F4207D00F4B154A9C
:107F20001888104B102400040094D2E7C768B942A7
:107F30000CD34C1E05690EFB0244AC4206D8DCF89B
:107F40001040A44603B0BDE8F0406047034B0A4A26
:107F50001888044B102400040094BAE7542200202F
:107F600096C802000EC802009BC802000CC902009D
:107F7000CBC8020021C8020047C8020029DF7047B1
:107F800028DF704770B503689D6886B004460E46CA
:107F90006DB114220021684604F002FBA36805932A
:107FA000237901962BB1012B0DD06846A84706B066
:107FB00070BD01238DF8003023690293E3680393B9
:107FC00063690493F1E702238DF80030E3681B0333
:107FD0000293F5E7034B187A0122B0FA80F05A7445
:107FE00040097047AC29002070B5244D244E2B7AEF
:107FF0002C463BB923492448FFF7F7FD306008B908
:10800000686070BD0223237233681A7972B1012A45
:1080100024D018460321FFF7B5FF002323726360C5
:1080200018491948BDE87040FFF70ABED3E905209A
:10803000121AB2F5805F28BF4FF48052D3E90315BE
:108040009208012A014438BF01222844FFF796FF15
:1080500050B11128DDD101232372D2E7D3E9030205
:108060001044FFF78DFFF3E7237C002BC9D10146B5
:10807000BDE87040022000F009B800BFAC29002024
:10808000C4290020C02900209022002038B5831E7A
:10809000012B45D8234C237A002B41D0022B09D148
:1080A000032830D0204B1B680022E2601A793AB1D5
:1080B000012A22D0637C7BBBBDE83840FFF794BF28
:1080C000D3E905128D1AB5F5805F94BF521902F5F8
:1080D00080529A619142EDD102284FF0000308BF0F
:1080E00019462372104B18BF0D211868FFF74AFF7D
:1080F0000E490F48FFF7A4FDDCE71A6901321A6147
:108100005B699A42E7E7E3680133082B01D8E36033
:10811000D0E70023E360DFE7BDE8384003F062BF4B
:1081200038BD00BFAC290020C4290020C029002090
:108130009022002000F0FD03012B08D1044B002207
:108140005A74421E504250411874FFF74DBF704799
:10815000AC290020F8B546790146721E0546002379
:1081600093422D6803D30024A64202D8F8BD013300
:10817000F6E70F682846FFF705FE01343946F3E7B6
:108180002DE9F843868ACD1C0746FFF7D7FD043E4C
:1081900035440446B5FBF6F5F0B14FF48073EDB20B
:1081A0008380C680013D076081464FF00008A845E6
:1081B00012D23846FFF7C2FD064648B16379013353
:1081C000637108F10108C9F8000007608146EEE715
:1081D0002046FFF7BFFF34462046BDE8F883012163
:1081E0000430FFF78FBD10B5012104460430FFF7BE
:1081F00094FD10F0FF0F04D12046BDE81040FFF7BA
:10820000A9BF10BD2DE9F843C7880546181D88464B
:10821000B0FBF7F4164607FB14003CB9A7EB0009C6
:10822000B14528BFB14626B9BDE8F8832D68013CA9
:10823000F3E70430A6EB09064A4608EB040128449C
:1082400004F085F9B7424C442D68B9464FF0000060
:1082500028BFB146E7E741DF70470000064B10B585
:1082600000241C70054B1C60BFF35F8F0449054858
:1082700000F030F8204610BDD0290020D42900207D
:10828000C8C90200C829002007B500230DF1070066
:108290008DF80730FEF7B2FEF1EE103A23F09F039F
:1082A000E1EE103ABFF35F8F094B4022C3F88421FF
:1082B0009DF80700FEF7C6FE03F0A4FE20B1FFF70D
:1082C000CAFF03B05DF804FB20BF40BF20BFF8E742
:1082D00000E100E00B684A684360934208BF002356
:1082E000016008BF43607047436843B1026891680A
:1082F00052680B449342436004BF002343607047BD
:1083000010B50D49A1F59472914201D800200FE0FB
:108310008B1ADB1003EBD3735B1002EBC30452F830
:108320003330834205D802D204F10802ECE76068DA
:1083300010BD2146E8E700BF18CB020008B5FFF7E3
:10834000DFFF024B002808BF184608BDDDC9020048
:108350000C4B1B78062B10D10B4B1B681A070CD14A
:108360000A4B186800F0F003302B08D000F0E00052
:10837000A0F1400358425841704700207047012047
:10838000704700BFE00F00F0E40F00F0E80F00F0CE
:10839000094B1B78062B0CD1084B1B681A0708D118
:1083A000074B186800F0F000A0F130035842584124
:1083B00070470020704700BFE00F00F0E40F00F0AE
:1083C000E80F00F008B5FFF7C3FF28B17D4B7E4AE8
:1083D0001B68C3F304231360FFF7DAFF10B17B4B74
:1083E0007B4A1A60FFF7B4FF28B17A4B7A4A1B68C0
:1083F000C3F342331360FFF7CBFF20B1774AD36852
:1084000023F08073D360FFF7A3FF40B14FF08043A8
:108410000022C3F80C21C3F81021C3F83825FFF758
:10842000B7FF10B16E4B03221A60FFF7B1FF40B1E6
:108430006C4B05221A6001229A6700229A603F2243
:108440005A60694B1B78062B50D1684B1B68190783
:108450004CD1674B1B6803F0F003502B46D14FF013
:108460008052644BD2F80414C3F82015D2F80814D3
:10847000C3F82415D2F80C14C3F82815D2F8101438
:10848000C3F82C15D2F81414C3F83015D2F8181408
:10849000C3F83415D2F81C14C3F84015D2F82014D0
:1084A000C3F84415D2F82414C3F84815D2F8281498
:1084B000C3F84C15D2F82C14C3F85015D2F8301468
:1084C000C3F85415D2F83414C3F86015D2F8381430
:1084D000C3F86415D2F83C14C3F86815D2F84014F8
:1084E000C3F86C15D2F84424C3F87025FFF730FFA9
:1084F00028B1414B414A1B6803F04F031360FFF75B
:1085000027FF48B14FF08043D3F80024D20744BF7F
:108510006FF00102C3F80024394B1B68062B08D109
:10852000384B1B68062B01BF374A136843F480633E
:108530001360364AD2F8883043F47003C2F88830AA
:10854000BFF34F8FBFF36F8F4FF01023D3F800228C
:10855000002A03DBD3F80432002B2FDA2C4B012244
:10856000C3F80425D3F80024002AFBD04FF01022D2
:108570001521C2F80012D3F80024002AFBD04FF0D6
:1085800010231522C3F80422214B1A46D3F80014F5
:108590000029FBD00021C3F80415D2F80034002BC9
:1085A000FBD0BFF34F8F19491A4BCA6802F4E0623F
:1085B0001343CB60BFF34F8F00BFFDE7164B174A45
:1085C0001A6008BD240300104035014074C0074004
:1085D0000DF0ADBA440200103C050040F0ED00E0A3
:1085E000A005004010560040E00F00F0E40F00F03E
:1085F000E80F00F000C0004058020010E40E0040F8
:1086000030010010340100103C17004000ED00E084
:1086100000E001400400FA05A42200200090D003ED
:108620004FF0A043D3F804056FEA906000F001001A
:1086300070474FF0A0434FF08062C3F80C2570479D
:108640004FF0A0434FF08062C3F8082570474FF009
:10865000A0434FF08062C3F8082570474FF0A04355
:108660004FF08062C3F80C2570474FF0A042D2F85B
:108670000435D94301F0806103F08063C2F8081526
:10868000C2F80C357047193818BF4FF0FF307047EB
:10869000C20708D54FF0A0430322C3F868274FF064
:1086A0008062C3F80825830742BF4FF0A0430C2225
:1086B000C3F864277047000038B5074C051E04F165
:1086C000080318BF1C4623682BB11A6822605B6838
:1086D00028469847F7E738BDE029002020B9054B28
:1086E00001225A70FFF7E8BF012802D1014A9070B9
:1086F000F8E77047D829002020B9034B01225A70AF
:10870000FFF7DABF704700BFD829002038B50B4CFF
:10871000237883B90A486360A3602361E36000F0B3
:1087200095F8054603F06EFC08B900F09BF80123AC
:108730002370284638BD8525FBE700BFD8290020D7
:10874000DD86020037B5184CA378054603F0FF021A
:108750009BB110B143680120984700230DF1070039
:108760008DF80730FEF74AFCE3689DF807000133F7
:10877000E360FEF767FC03B030BD0DF107008DF834
:108780000720FEF73BFC25B1226913463BB92A605E
:108790002561E368002BE7D100F078F8E4E79D421B
:1087A000F7D01B68F2E700BFD829002037B50B4C83
:1087B00000230DF107008DF80730FEF71FFCE3687A
:1087C000013BE360E56815B900F086F8A5709DF8F7
:1087D0000700FEF737FC03B030BD00BFD8290020EA
:1087E000012813B509D018B103281CD002B010BD60
:1087F0000F4B0122C3F88020F8E70E4C00230DF147
:1088000007008DF80730FEF7F9FB23780BB9FFF767
:108810007DFFE3689DF807000133E3600123A37047
:10882000FEF710FCE2E700F01DF8FFF7BFFFDDE701
:1088300000E100E0D829002000F18040002382B050
:10884000036003680193019B02B07047044A1379E7
:1088500023B9012110609180184670478520704728
:10886000EC290020084B1A68D20706D4E02283F8CE
:1088700000230122C3F880211A604FF080430122B7
:10888000C3F81825704700BF00E100E038B54FF489
:108890008270FFF7D1FF4FF080430222C3F8042318
:1088A0000A4AD06840F08073D360094B1C6844F0DA
:1088B000010119605D685968491BB1F50A5FFAD377
:1088C0001C60044BD06001221A6038BDF0ED00E05E
:1088D000001000E008000040044B01221A604FF035
:1088E0008042D2F81834DB03FBD470470C00004000
:1088F000124B1B6810B573B14FF48070FFF79CFFEB
:108900004FF080430122C3F808230D4B587910B96A
:108910005A711B6898470B4B1B6873B14FF48270F8
:10892000FFF78AFF4FF080430222C3F80823044B6D
:1089300001201B68BDE81040184710BD0001004031
:10894000EC2900200401004000F1804000F5C04007
:10895000002382B0036003680193019B02B070475B
:10896000800000F1A040D0F8003723F44033C0F875
:108970000037D0F8003743EA0141C0F800177047CC
:10898000054B4FF0FF32072843F8202084BF1B1807
:1089900083F84820704700BFF429002010B5184C18
:1089A00094F8583053BB04F130032021FF220139E1
:1089B00011F0FF0103F8012BF9D1C8B2FFF7E0FF76
:1089C00001310C29F9D1042200210E4803F0E8FD01
:1089D0000D4BE02283F806234022C3F880214FF498
:1089E000BE701A60FFF7B0FF084B4FF00042C3F8AB
:1089F0000423012384F85830002010BD0820FCE730
:108A0000F4290020482A002000E100E00060004036
:108A1000034B93F85800003018BF0120704700BF87
:108A2000F4290020F0B5374B1C1894F93040002C85
:108A30001C4664DA8D78C5F34005002D0BBF082372
:108A400000230C260826B34201D10420F0BD54F8BF
:108A5000237001373FD1261844F8232086F83030A0
:108A600015B9E21882F848008A78550713D4D6075A
:108A700033D5820002F1A042D2F8005725F002055A
:108A8000C2F80057204EC50800F007070122BA407F
:108A9000775D3A4372558A780D7812F0020225D03C
:108AA0009B0003F1804303F5C0430202D3F8101585
:108AB00021F4473121F44071C3F810152D04D3F887
:108AC000101502F4F85205F440352A430A43C3F85E
:108AD00010250020BAE70133B5E74D7800F5E072C4
:108AE0004FF0A046AD0046F82250CBE7083B2344A8
:108AF00093F8501041EA851583F85050E9E70820B3
:108B0000A4E700BFF4290020482A002038B5204CF3
:108B1000251895F93020072A18DD224492F84830AC
:108B20009B09032B0DD14FF0A043D3F81035C34060
:108B300013F0010F0CBF02210321BDE83840FFF7FD
:108B40000FBF012B14BF03210221F6E7D3B2072B7D
:108B50001CD8930003F1804303F5C043D3F81005FC
:108B600040F00100C3F8100502F14000800080B21F
:108B7000FFF7EAFE51B195F9303054F823302BB1AC
:108B8000012303FA02F2034BC3F8042338BD00BFEC
:108B9000F4290020006000404FF0A043D3F81035C6
:108BA00023FA00F000F00100704700002DE9F04FBB
:108BB00085B000245A4D01944FF48072012102F1D6
:108BC000804303F5C04390B21B68012B06D1D5F852
:108BD00004330B4202D0FFF7B7FE0C430432B2F568
:108BE000907F4FEA4101EAD14E4B1B68012B0AD11D
:108BF0004FF4BE70FFF7A8FE4FF0A04344F00044CE
:108C0000D3F81035019314F0FF0F1AD0464F00250A
:108C10000126344210D0AB0003F1804303F5C0437A
:108C2000D3F81005D3F8101557F8253023B1C1F348
:108C30000141C0F3042098470135082D4FEA46064C
:108C4000E7D1002C64DA00224FF0FF33CDE9022394
:108C5000354D01274FF0000A344E54464FF0A048DE
:108C600016F9012B531C46D0D2B222F0C0094FEAAC
:108C7000D90104A8084402F0070310F804CC07FA4D
:108C800003F31CEA030F36D005EB090C92099CF99B
:108C900030C055F82CB0BBF1000F0AD1032A2AD1FD
:108CA0000DF1080E1EF801C04CEA030C0EF801C0CD
:108CB00001E0032AF4D009F5E07110F80C0C58F823
:108CC00021101842C1F3014105D0022913D1032A12
:108CD0000BD1114604E003290DD1032A05D102214D
:108CE0004846FFF73DFE0134E4B2BBF1000F02D06D
:108CF00011464846D8470AF1010ABAF1040FAFD12C
:108D000034B14FF0A043019AD3F81035934202D109
:108D100005B0BDE8F08F0193029B03939AE700BF73
:108D2000006000407C610040F4290020442A0020BB
:108D3000014B1B68184700BF502A002000F18040FB
:108D400000F5E040002382B0036003680193019BBB
:108D500002B07047F0B5534B534C1B6885B0002BE5
:108D60003DD04FF4827094F82E20FFF7E7FF2AB32E
:108D700094F82F3013BB4D4B1B68002B33D04FF4AE
:108D80008070FFF7DBFF94F82D20638B91B28B424C
:108D90004ED95B1A21899BB26383CB1A616801EBC0
:108DA0004301434BC3F82C16C3F830264FF48270AE
:108DB000FFF7C4FF3F4B01221A6014E0636802937F
:108DC0002389ADF80C30E36800218DF8041023BB33
:108DD0002374236801A89847002384F82F3094F85F
:108DE0002E30002BC7D1344B1B685BB14FF4887019
:108DF000FFF7A4FF0023237402238DF8043001A899
:108E0000236898472D4B1B6813B34FF48A70FFF704
:108E100095FF0023237405B0F0BD208B6083636051
:108E20002081E160002AD4D1214B01221A60D0E7D1
:108E3000BCD1E368012184F82F103BB1002161838C
:108E40001B49C1F82C36C1F83026AFE76383ADE784
:108E500066694FF000470125002EDCD0B6FA86F295
:108E600027FA02F34632920026EA030602F1804313
:108E700003F5E0431B68002BEED01046FFF75EFFC2
:108E8000A2F58C72D30882F00402C2F380028DF83E
:108E900008308DF804508DF80920236801A8984700
:108EA000DAE700BF04710040582A0020007100403A
:108EB00000700040047000401071004014710040C8
:108EC0000220FFF7D2BB0000034B1B7813B1002038
:108ED000FFF7B6BBFFF7BBBB892A0020F8B5794C7A
:108EE000237805461BB100232370FFF7EDFF172DF4
:108EF00000F28480DFE805F00C13133F5061727CB0
:108F000084898489919696969696C0C5CDD5E0E0E1
:108F1000FFF7DAFF6C4B00241C702046F8BD0020E0
:108F2000FFF77EFBF8B10020FFF78AFB022D0CBF94
:108F30004FF4E1614FF47A61634B1D704FF40040D0
:108F40004FF4FA740025E0FB01454FF47A720023D8
:108F50002046294603F0B4F9002201465B48BDE8EB
:108F6000F840FDF7F5BFFFF764FB022D0CBFC821E9
:108F70004FF4C871E0E70020FFF752FB40B100203A
:108F8000FFF75EFB4FF448714F4B03221A70D5E791
:108F9000FFF74FFBC821F7E70020FFF741FB38B18F
:108FA0000020FFF74DFB4FF47A61474B0422EDE7B9
:108FB000FFF73FFB4FF4C871F7E70020FFF730FBE6
:108FC00048B10020FFF73CFB3F4B05221A7041F6E9
:108FD0009A110022C2E7FFF72CFBF5E70020FFF70C
:108FE00044FB394B06221A70002240F6CD41B5E70A
:108FF0000020FFF71EFB344B07221A7000248CE779
:1090000001202070FFF731FBEEE701202070FFF711
:109010002CFB00224FF48041A0E7FFF71FFB2A4BF7
:109020000C22EAE72A482B4EFDF7D8FFD5F11105AF
:1090300004461CD0D8B9012D13D0C8235D434FF48A
:1090400000474FF4FA7000214FF47A720023C7FBF7
:10905000050103F035F9224601461D48FDF778FF6A
:1090600004460220FFF7E5FA0123337055E702209A
:10907000FFF7E6FA0023F8E7FFF726FF124B12226C
:10908000BBE7FFF721FF0020FFF7D3FA0E4B1322B7
:10909000B3E7FFF719FF0120FFF7CBFA0A4B1422C1
:1090A000ABE7FFF711FF0020FFF7C3FA0120FFF73E
:1090B000C0FA054B1522A0E7FFF7D0FA024B1D704E
:1090C0009CE700BFF42A0020FC2A0020CC2A0020C4
:1090D0008C2A0020892A0020044B1B68DB0703D55B
:1090E000034B1878FFF7FABE704700BFF02A002044
:1090F000FC2A00202DE9F04107460C46FFF7C3FA91
:1091000020B9012C04D0ECB1022C25D0BDE8F081AF
:10911000134D6A782C7842B1124E134832464FF400
:109120000041FDF715FF00B93770104BAA781A708F
:10913000002CEBD00E4B1B68002BE7D02046BDE87F
:10914000F04118470848FDF749FF054B9C78074B4D
:109150001B78A342DAD1EBE7014B5C78E8E700BF6C
:10916000EC2A0020882A0020AC2A0020FD2A0020BA
:10917000F82A002002210078FFF7BCBF044B1B68CF
:1091800013F0010301D0FFF7A9BE1846704700BFD6
:10919000F02A002038B5194B1860194B10F0020462
:1091A0000546196014D0174B17480E221A7001217A
:1091B00040F26662FDF7CCFB044648B9FDF71CFCA3
:1091C000044628B90146114A1148FDF7AFFE04468E
:1091D000EB0711D50120FFF75BFA6CB921460D4A68
:1091E0000D48FDF7A3FE044630B90C4A0C48012196
:1091F000BDE83840FDF79ABE204638BDF02A002071
:10920000F82A0020EC2A0020FCCE02007591020012
:1092100008CF0200D99002000CCF0200C18E0200DC
:1092200004CF020048B9012A02D1012907D0024621
:10923000012905D051B1022905D0072070470E221F
:10924000044B1A707047034B5A707047014B9A7069
:10925000704700BFEC2A002008B50122022100203F
:10926000FFF7E0FF08B1072810D1072202210120F3
:10927000FFF7D8FF08B1072808D100210A220846C5
:10928000FFF7D0FF10B1072808BF002008BD00007D
:109290000388102B10B502D0112B1ED010BD1A4C14
:1092A0002168B1B901220846FFF7BCFF08B10728C1
:1092B00024D1072202210120FFF7B4FF08B10728BB
:1092C0001CD1042202210020FFF7ACFF08B10728BF
:1092D00014D1236801332360E0E70B4A1368013B94
:1092E0001360002BDAD1FFF7B7FF0028D6D0074B69
:1092F0001B68002BD2D0BDE810401847034B1B68F9
:10930000002BE6D09847E4E7042B0020002B002038
:109310006CDF70476DDF704772DF704773DF704737
:1093200074DF704777DF704708B5084B0121187864
:10933000FFF7F4FF08B1FDF775FB0220FFF71EFFF2
:1093400018B1BDE80840FDF76DBB08BDB82200208C
:1093500007B501228DF8040001A9034803F0F7F8CE
:1093600003B05DF804FB00BF092B002013B50A20F1
:1093700003F00EF8082204460021684603F010F9B5
:1093800069464022204603F0E2F801220A4904F12E
:10939000080003F0DCF80122084904F1090003F099
:1093A000D6F80A222146064803F0D1F8204603F0F9
:1093B00039F802B010BD00BF092B0020082B002097
:1093C0000A2B002030B593B059231B4CADF8003068
:1093D000FFF7CCFF194B029300250A233C22002102
:1093E00003A8ADF8043003F0DBF804231822294663
:1093F00020468DF80F308DF80C50CDF830D003F0AA
:10940000CFF80F4A65600523237052F8041B2575B9
:109410004FF4C86303A8A360A58100F0C5F908B1A3
:10942000FDF700FB044A06490648FFF775FF08B13F
:10943000FDF7F8FA13B030BD542B00200A2B0020A2
:10944000A8220020B822002008B5274B0122DA60AC
:10945000D3F81021002AFBD00022C3F81021D3F842
:109460000024012AFBD001221A601F4B1A46D3F8B0
:1094700000110029FBD00021C3F80011012159601F
:10948000D2F80431002BFBD00023C2F80431174B73
:10949000DFED176A1B8817491BB207EE903AF8EE0A
:1094A000E77A154B87EEA67A83ED007AD3ED007A42
:1094B000B2EE047A67EE877AFCEEE77A17EE903A1E
:1094C0000B7001239360084BD3F81421002AFBD0C2
:1094D0000020C3F81401FFF723FFFFF773FFBDE877
:1094E0000840FFF721BF00BF00700040902B002014
:1094F000CD388E45082B00208C2B002008B500208D
:10950000FFF726FF0020FFF70BFFFFF75BFFBDE82B
:109510000840FFF709BF00000E2808B514D101204C
:10952000FFF716FF0020FFF7FBFEFFF74BFFFFF7EB
:10953000FBFE00224FF420310448FDF709FD18B16D
:10954000BDE80840FDF76EBA08BD00BF342B00200F
:1095500007B5009B03F001020C4B134300934FF43B
:109560002043ADF804306846C1238DF80630FFF77C
:10957000CFFE08B1FDF756FA6846FFF7CBFE08B1FB
:10958000FDF750FA03B05DF804FB00BF027C28C36E
:1095900008B54FF0804301221A60D3F80021002A59
:1095A000FBD00022C3F800210F4B1048C3F8182548
:1095B0000921C3F810150321C3F81425C3F8F015C9
:1095C0000121C3F83016C3F82C06C3F8F825084863
:1095D000C3F800154FF40041FDF7BAFC18B1BDE81F
:1095E0000840FDF71FBA08BD00700040902B002016
:1095F000142B002007B5FFF789F808B1FDF712FA20
:109600000020FFF79FF8FDF761FC08B1FDF70AFAAB
:10961000264A27480021FDF789FC08B1FDF702FA28
:10962000244A25480121FDF781FC08B1FDF7FAF92C
:10963000FFF7AEFF21490220FFF7ACFD08B1FDF7AF
:10964000F1F94FF080430122DA67C3F87825FEF77D
:1096500005FE08B1FDF7E6F902F04EFC08B1FDF792
:10966000E1F9002301A90120019302F015FD08B1E1
:10967000FDF7D8F901A802F0B9FD08B1FDF7D2F95C
:109680000120FFF765FFFFF79DFE00221146012034
:10969000FFF748FE08B1FDF7C5F9FFF745FEFCF7F7
:1096A000F5FE0028FBD1FEF7EFFDF8E7FD94020080
:1096B00014CF02004994020010CF02001995020055
:1096C0006DDF704779DF70477DDF704764DF70477B
:1096D0002DE9F74F0C9CBDF834B027880025804653
:1096E0008A4691462E46B8F80020B2420BDC35B1CE
:1096F0002288013AD21B92B2FF2A39D8DA550020CB
:1097000003B0BDE8F08FD8F8042052F8260001908D
:1097100000220DF1030101A8FFF7D8FF0028EFD1C7
:109720009DF803204A4521D12288002D14BF002036
:10973000022002EB09010144594519DC3DB901320F
:1097400092B2228003F802A022880132228022886D
:109750000DF103011A4401A8FFF7B8FF0028CFD18B
:1097600021889DF803200A44228001250136BAE7AA
:109770000C20C5E72DE9F341089CBDF8245017469D
:10978000CDE9004502220646FFF7A2FF48B91022A4
:1097900039463046CDE9084502B0BDE8F041FFF753
:1097A00097BF02B0BDE8F0812DE9F04F0023168885
:1097B000138090F82D3085B007460D46144653B3FC
:1097C000082E01D80C2007E102A8FFF779FF002836
:1097D00040F0028113880822CA54238801339BB2C7
:1097E0001B222380CA542088013080B220800622A8
:1097F0000DF10901284402F0AAFE23889DF80820F3
:1098000006339BB212F0FE0218BF01222380EA54F5
:10981000238801332380BB78FBB123880433B34210
:10982000D0D802A8FFF74EFF002840F0D58023884B
:109830000322EA54238801339BB219222380EA547D
:109840002388BDF8082001339BB2E9182380EA542D
:10985000120A4A70238802332380FA789AB1238847
:10986000D91CB142AED80221E954238801339BB2FE
:1098700001212380E95423880B449BB22380EA54BE
:1098800023880B4423807A68AAB12388D91CB1426B
:1098900098D8022192F90020E954238801339BB221
:1098A0000A212380E954238801339BB22380EA54A0
:1098B0002388013323803B89002B40F081803B8A41
:1098C00053B1CDE900462B460722032107F11000D2
:1098D000FFF750FF00287FD13B8B53B1CDE9004605
:1098E0002B461522142107F11800FFF743FF00282B
:1098F00072D13A6A002A72D1D7F82480B8F1000FE9
:1099000030D0B8F804302188981C8A1C0244B24236
:109910003FF658AFFE283FF655AF03336B5423880C
:1099200001339BB2FF222380EA54238801339BB288
:109930002380B8F80020EA54E918120A4A702088F7
:10994000023080B22080B8F804205AB1D8F808104C
:1099500000294ED0284402F0FAFD2388B8F80420EC
:109960001344238097F82C30002B7DD1387898B39E
:109970003B88012B3DD0228802F1020CB4453FF612
:1099800021AF012805D17B78023313449E42FFF4B6
:1099900019AF023EB61AB6B202A905EB0C00ADF83B
:1099A0000860FFF791FEB8B93B78022B40F09F802A
:1099B000BDF80830B34240F2B680ADF808609FE0D1
:1099C000CDE900462B460622022107F10800FFF7E9
:1099D000D1FE00283FF473AF05B0BDE8F08FB4F8B6
:1099E00000C00CF10603B3423FF6ECAE1188052926
:1099F00001D80720F0E76FF4486E01EB0E039BB22D
:109A00004FF27D3E7345F4D95388052BF1D96FF49D
:109A10004860181880B27045EBD94FF6FF7081424C
:109A200003D0834201D09942E3D8052305F80C30D6
:109A3000238801339BB212212380E9542388013308
:109A40009BB223801188E954E818090A41702388E1
:109A500002339BB223805288EA54E918120A4A70F2
:109A600023880233238047E7BB6A002BC1D04FF025
:109A700000094FF00C0A4FF0160B97F82C305FFAE4
:109A800089F293427FF672AFB96A0AFB02F201EBE8
:109A90000208B8F80430981CFE283FF693AE2088E0
:109AA00003332B54238801339BB2238005F803B082
:109AB000238801339BB223808A5AEA54E918120A98
:109AC0004A702088023080B22080B8F804205AB151
:109AD000D8F8081000298CD0284402F038FD2388DB
:109AE000B8F804201344238009F10109C5E7012BCC
:109AF0007FF463AF7B789E42FFF45FAFADF8083030
:109B00000821BDF80830FE2B3FF65CAE22880133F9
:109B1000AB542288013292B22280A9542288134485
:109B20002380002058E70921EBE70000034B1A8847
:109B300082420CBF18460020704700BFB02B0020A7
:109B4000024B9B6903B11847704700BF942B00205C
:109B500013B50B46497A0F4C024669B9D4E9011096
:109B60001C7A002C18BF01465868FDF7F1F908B1BE
:109B7000FFF7E6FF02B010BD002119726369002BE8
:109B8000F8D00121ADF806008DF8041001A898471F
:109B9000F0E700BF942B00204B8802889A4213D82C
:109BA00042889A4210D380888A8840F2F313984200
:109BB00094BF031AC31A934206D800F2F3109042DE
:109BC00034BF002001207047002070470388112B0C
:109BD00070B5014648D002D8102B1ED070BD122B94
:109BE00052D0502BFAD12F4BC288DB899A42F5D143
:109BF000038A022BF2D186883046FFF797FF05468D
:109C00000028EBD001F1120000F060F930BB686869
:109C1000FDF7E4F90028E1D009E0C37B012BDDD199
:109C20004FF6FF70FFF782FF054620B90420BDE81C
:109C30007040FFF785BF1C4A8E88068000230372A0
:109C40001368C5F80A300A30536843601031FFF7D3
:109C5000A3FF144B6872DB89002BBFD12946304625
:109C6000BDE87040FFF774BF8088FFF75FFF0446D0
:109C70000028B3D04068FDF7B1F908B1FFF760FFE5
:109C80004FF6FF732380A9E786883046FFF74EFF23
:109C900005460028A2D008310A30FFF77DFF687220
:109CA000DCE700BF942B0020C42B0020F7B517463B
:109CB00001900E4691B1019C6CB100252C462946BD
:109CC00001A8FDF7E0FF18B13946A8B2B04701344A
:109CD0000135142DF3D1204603B0F0BD0C46FAE750
:109CE00073B50191019C06466CB100252C462946AE
:109CF00001A8FDF7C8FF18B106EB440301349D80AD
:109D00000135142DF3D13046346002B070BD00002F
:109D10002DE9F04703888488112B8CB006463CD08F
:109D20001A2B3FD0102B17D1274DAB68DB43009384
:109D300069686846FDF7D0FF009901A8FFF7D0FFDA
:109D40000DF108094FF00008019B984507D3132C2B
:109D500013D90420FCF766FE0CB0BDE8F08739F893
:109D600002AB00270137514605EB8700FDF781FF65
:109D70001D2FF7D108F10108E6E721461348FDF74A
:109D80006FFF21461248FDF76BFFF37B012BE3D0F9
:109D900010482146FDF764FFDEE70C482146FDF739
:109DA00068FFD9E7057A0C482D09012D214606D90F
:109DB000FDF756FF022D21460848F0D0EAE7FDF7EF
:109DC00058FF21460548EAE7CC2B0020D42B002081
:109DD000D02B0020D82B0020DC2B0020E02B0020F3
:109DE0001328014602D80248FDF74DBF00207047F6
:109DF000D02B002010B50446FFF7F2FF38B1214602
:109E00000348FDF740FF002814BF0220012010BDC9
:109E1000D82B002010B50446FFF7E2FF28B12146F9
:109E20000248BDE81040FDF72EBF10BDDC2B00201E
:109E300070B50A4D064628460C46FDF724FF58B17A
:109E40003046FFF7CDFF38B1A01D314605EB80004D
:109E5000BDE87040FDF717BF002070BDCC2B00207F
:109E6000F8B50D4C054620460E461746FDF70BFF8C
:109E700080B12846FFF7B4FF60B1B01D04EB80004D
:109E800029461FB1BDE8F840FDF7EABEBDE8F8403D
:109E9000FDF7EFBEF8BD00BFCC2B0020F8B50A4C93
:109EA00005460E46014620461746FDF7ECFE48B132
:109EB000043504EB85043A46A0683146BDE8F84015
:109EC000FFF7F4BEF8BD00BFCC2B0020007800F0F7
:109ED00001007047024B034918780022FFF7DEBFEC
:109EE000472C0020AD9F0200024B03491878002246
:109EF000FFF7D4BF462C002045A0020010B5044651
:109F0000408800F051FBA0802046BDE8104001F0E1
:109F1000E9B830B587B005460C461422002101A8E7
:109F200002F03EFB072301A88DF80430ADF806507F
:109F30000394FFF7E3FF07B030BD000030B587B0F2
:109F400005461422002101A802F02AFB4FF6FF73F8
:109F50009D42ADF8065023D0284600F0DEF90B28CC
:109F6000044615D005D860B121462846FFF7D1FF39
:109F700005E011280ED043F202039842F4D10022EA
:109F800009E00E2301A88DF80430FFF7B7FFF6E7CC
:109F90000F23F7E70122034B28461978FFF760FFEC
:109FA00007B030BD452C0020FFF7C8BF70B5234E69
:109FB00086B031780446FFF73BFF0546C0BB20461C
:109FC00000F0FAF90828014622D006D888B1062800
:109FD0001ED02046FFF79DFF09E043F2020398429E
:109FE00005D043F20143984224D01128F1D1012237
:109FF00014E02946142201A802F0D2FA102301A885
:10A000008DF80430ADF806400125FFF777FFEEE745
:10A01000204600F0C9FA00F0E9F90022084B20467A
:10A020001978FFF71DFF2A4631782046FFF718FF01
:10A0300006B070BD2046FFF781FFD8E7482C00200E
:10A04000472C002070B5002186B006461C4801F060
:10A05000B7F9054670B3304600F01AF911280146E9
:10A060001CD004D840B33046FFF753FF05E08628E4
:10A0700006D043F202039842F5D1002425460EE0B3
:10A080001422002101A802F08BFA062301A88DF802
:10A090000430ADF80660FFF731FFEEE70024094B0E
:10A0A0002A4619783046FFF7DBFE1CB921460448E2
:10A0B00001F0ACF906B070BD2C460546EFE700BFD5
:10A0C000442C0020462C0020037810B5044673B9B8
:10A0D0004088FFF733FF608800F05CF938B1044B2B
:10A0E000608819780122BDE81040FFF7B9BE10BDA5
:10A0F000472C00200378082B37B504462CD1417A31
:10A1000051BB057A072D1BD0082D29D0012D23D155
:10A110006A462946808800F02BFEE8B9019B1B782F
:10A12000D3B1A08800F068FA4FF6FF73984213D0BD
:10A130000D4B2A461978FFF793FEFFF7CBFE0BE095
:10A14000808800F059FA4FF6FF73984204D0074B0D
:10A1500001221978FFF784FEFFF7C6FE03B030BD79
:10A16000034801F053F9F7E7472C0020462C002064
:10A17000442C002010B503888488522B86B016D05A
:10A18000542B21D0502B15D1037B012B12D1827A75
:10A19000012A0FD1018942F6021399420AD11B4BC1
:10A1A00020461978FFF75CFEFFF79EFE02E020468E
:10A1B000FFF7C4FE164B174918780022FFF76EFE12
:10A1C000FFF788FE06B010BD1422002101A802F09E
:10A1D000E7F9112320468DF80430ADF8064000F071
:10A1E000E3F9ADF8080000F001F90B4B20461978AF
:10A1F0000022FFF735FE094B204600221978FFF7B1
:10A200002FFE01A8FFF77AFED4E700BF462C0020FE
:10A21000452C0020A99F0200482C0020472C00203C
:10A22000AFDF7047B1DF7047B2DF7047B3DF704711
:10A2300073B50F4B0F4C93E803006D4685E80300A0
:10A2400000222946208800F08AFE4FF6FF762388F8
:10A25000B34201D0112801D102B070BD184600F000
:10A2600070FE00222946208000F079FEEFE700BF53
:10A2700024CF02004A2C0020044B1A884FF6FF73AB
:10A280009A4201D0FFF7D4BF704700BF4A2C00208C
:10A290002DE9F743804600F087F94FF6FF739842A7
:10A2A000064637D001224FF003096B46082130469D
:10A2B000571C00F061FDBFB2054630BB01990A464C
:10A2C000032342F8049B06314046FFF7ADFF0446E6
:10A2D00048B932460821304600F020FE04462046A8
:10A2E00003B0BDE8F0830C280DD0052800D12C4622
:10A2F0000821304600F0ACFD002818BF03243A4680
:10A30000002DD2D1EBE70125F2E7072814BF044660
:10A310000C24E4E743F20204E1E72DE9F34180462F
:10A3200000F042F94FF6FF73984217D1002403253D
:10A33000264601272B46224631464046FFF772FF4C
:10A34000042820D0082823D00B281DD115F00203A3
:10A350000FD18EB9A4B902B0BDE8F0816A460821D8
:10A3600000F006FD0028E1D1019B9E1D9C881D6820
:10A37000DFE701250027DDE703251C461E46F9E738
:10A3800003253446F6E71120002F08BF0B20E2E733
:10A390000020F9E71FB50DF10703039300F004F95E
:10A3A00002AA012100F0E4FC20B9039B187805B053
:10A3B0005DF804FB0020FAE738B504460A48FFF7C9
:10A3C00035FF70B9084B43F203054FF6FF72198849
:10A3D0002046FFF725FFA84204D11A8801321A80CF
:10A3E000F3E7032038BD00BF4C2C002013B5074A0B
:10A3F000044692E803006B4683E8030000221946F6
:10A40000204600F0ACFD02B010BD00BF2CCF020012
:10A4100046DF704770B5084D084E002431786888D3
:10A42000FFF706FD08B9E0B270BD0134142C05F148
:10A430000C05F3D1FF20F7E7502C00204E2C002014
:10A440000A4B10B519780446FFF7F2FC58B1084BD7
:10A4500000205A88A24201D1C0B210BD0130142898
:10A4600003F10C03F5D1FF20F7E700BF4E2C0020CD
:10A47000502C002038B505460C4609B9FF2038BDE0
:10A480004FF6FF739842F9D00E4B01221978FFF76F
:10A49000E7FC2846FFF7D4FFFF2803D1FFF7BAFFF8
:10A4A000FF28EBD008490C234343CA1855804FF6C8
:10A4B000FF75CD5221685160131DA2889A80A27940
:10A4C0009A71DCE74E2C0020502C0020421E00F137
:10A4D0000F0312F8010F10B99A42FAD17047012008
:10A4E000704708B570B171B103780A78534013F022
:10A4F000FE0F08D106220131013001F0EDFFB0FA64
:10A5000080F0400908BD0020FCE72DE9F04700F18C
:10A5100001084F1C06460D4600F1110901F1110A10
:10A5200010223946404601F0D7FF0446E0B94046C4
:10A53000FFF7CCFF18B13846FFF7C8FF0446514675
:10A540004846FFF7CEFF737C03F0FC03042B04D0D6
:10A550006B7C03F0FC03042B02D1201C18BF0120EC
:10A5600000F00100BDE8F0870024E8E730B585B0D1
:10A5700004460D4600F010FA02AA0DF1060107206C
:10A5800000F012FA10B94FF6FF700BE0BDF806307C
:10A59000AB42F1D003992046FFF7B7FF0028EBD07C
:10A5A000BDF8060005B030BD08B5FFF749FFFF282C
:10A5B0001DBF0C234343034A4FF6FF7018BFD05A08
:10A5C00008BD00BF502C002010B50C46FFF738FF27
:10A5D000FF280CD0074B0C2202FB003050F8043F40
:10A5E00023608388A3808379A371002010BD052098
:10A5F000FCE700BF502C0020084A30B500230C2493
:10A6000004FB03F18D5A854202D10A44508830BDC3
:10A610000133142BF4D14FF6FF70F8E7502C0020D3
:10A62000038843B9821C00F10A0312F8010B10B928
:10A630009A42FAD170470120704710B50446FFF7DF
:10A64000EFFF58B122880B889A4208D108220231C4
:10A65000A01C01F041FFB0FA80F0400910BD0020BD
:10A66000FCE71FB5044600F097F902AA0DF10601B8
:10A67000072000F099F910B94FF6FF7007E0039931
:10A6800020464631FFF7D9FF18B1BDF8060004B0E7
:10A6900010BD039920462A31FFF7CFFF0028E4D0F0
:10A6A000F3E7000010B50C46FFF7CAFEFF281FBFF6
:10A6B0000C234343014AD45210BD00BF502C00204C
:10A6C00070B50446FFF798FF0646204600F0D4FB1D
:10A6D0004FF6FF75AE42044609D040B93046FFF749
:10A6E000AFFEFF281FBF0C234343024AD55220462A
:10A6F00070BD00BF502C002070B58CB014466A4667
:10A700000D4600F11003164613F8011D02F8011B57
:10A710009842F9D10D22002104A801F041FF2B78C5
:10A720008DF81F306B788DF81E303046AB788DF881
:10A730001D30FFF76DFE9DF82F3023709DF82E30F1
:10A7400063709DF82D30A3700CB070BD30B50378E8
:10A7500003F0FE03042B85B004460D4618D1411CBE
:10A76000032201A801F0F3FE0322211D03A801F03A
:10A77000EEFE02AA03A92846FFF7BEFF032202A9A4
:10A7800001A801F0A9FEB0FA80F0400905B030BD83
:10A790000020FBE730B50388102B93B04FD1041D88
:10A7A0000FCC07AD0FC50FCC0FC594E807009DF87F
:10A7B000203003F0FE03062B85E8070008D000F0E8
:10A7C000EBF89DF820305B08012B04D9022B3FD019
:10A7D0004FF6FF7410E002AA0DF10601072000F009
:10A7E000E3F80028F4D0039908A81131FFF779FEA7
:10A7F0000028F0D0BDF80640BDF81C0008A9FFF7FE
:10A8000039FE4FF6FF739C4219D0BDF81C00FFF7CC
:10A8100017FEFF281EBF0C234343124AADF80C401D
:10A8200018BFD452BDF81C30ADF80A3002A800237E
:10A830008DF8083000F058FC02A8FFF745FC13B073
:10A8400030BD039908A80131FFF780FF0028D1D15E
:10A8500002AA0DF10601072000F0A6F80028F0D1A9
:10A86000B6E700BF502C0020012804D0043804288B
:10A870008CBF00200120704773B504460D46164674
:10A8800000210822684601F08BFEA5F58041A4F561
:10A8900080406B46324689B280B2FDF73DF9002810
:10A8A00018BF052002B070BDF0B5204D8BB000215F
:10A8B00008226846297001F073FE4FF6FF7000F021
:10A8C000E1FB4FF6FF770446BC4211D0A4F5804669
:10A8D000B6B26A4602A93046FDF738F90A2809D00F
:10A8E0003046FDF7F3F8082806460BD101232B70FC
:10A8F0000BB0F0BD204600F069FB204600F0C2FB23
:10A900000446E1E7002EF3D0142200210DEB0200F3
:10A9100001F046FE072305A88DF81430ADF8184065
:10A920000796ADF8167000F0ADF9E1E7482D00206C
:10A93000F0B5FF2887B004460E4615461F4627D8B7
:10A940000846FFF791FF18B303AA2046FFF794FFCC
:10A9500018B10524204607B0F0BD01A903A8FDF7F2
:10A960001DF804460028F4D1019BAE705A882A8055
:10A970002FB9029B6B6003A8FDF734F8EAE73B6848
:10A980009200934206D30299686801F0E0FDF2E775
:10A990000724DFE70424DDE708220021014801F055
:10A9A000FFBD00BF402D0020F0B587B007460E4622
:10A9B0001546FFF759FF0446F8B1A7F58040104A45
:10A9C00003A980B2FDF7B5F818B10024204607B0FE
:10A9D000F0BD01A903A8FCF7E1FF0028F5D1019B18
:10A9E000AF705A889B882A8003F58043029A6A6078
:10A9F00003A83380FCF7F6FFE8E70124E6E700BF91
:10AA0000402D002008B5034680780A46FFF72CFF4A
:10AA100040B119881046FDF707F8092804D8034B00
:10AA2000185C08BD0720FCE70320FAE749CF0200C5
:10AA300007B5019001A8FDF711F8002818BF032001
:10AA400003B05DF804FB30B589B0FF2804460192DD
:10AA50001D4644D88B781846FFF706FF00283ED0E5
:10AA6000A4F58042ADF80820A3F58042ADF80A2095
:10AA70004A6803920A880492194605AA2046FFF7FD
:10AA8000FBFE0528019B13D163B902A905A8FDF7B8
:10AA90000BF80728044624D013D8C8B10324204655
:10AAA00009B030BD01AA02A905A8FDF701F8F0E739
:10AAB00013B101A8FCF7D2FF02A905A8FCF7FEFF1D
:10AAC000E7E708280FD00E280CBF11240324E6E77F
:10AAD000002DE4D0294605A8FDF745F8DFE7072457
:10AAE000DDE78624DBE71124D9E74FF6FF7000F09D
:10AAF00055BAFF2808B505D800F056FAFFF7D4FE7E
:10AB0000002008BD0720FCE700F074BA00F0A0BAEE
:10AB100000F0B8BA30B50A68064B012A01D9002006
:10AB200005E01401E55A854202D10A60181930BDCA
:10AB30000132F2E75C2D002037B500230D460446B4
:10AB4000019301A9FFF7E6FF38B18378AB4206D144
:10AB5000837B9B0703D183680BB903B030BD019B96
:10AB60000133019301A92046ECE710B5044600F03B
:10AB700031FB204601F022F92046FFF77DFB2046FD
:10AB8000BDE81040FFF7B6BA8378013B072B07D822
:10AB9000DFE803F00706060606070409142303800E
:10ABA00070470123FBE743689B8809339B08F6E75E
:10ABB00070B50E4E04460025237BAB420ED84FF6EF
:10ABC000FF732380A3700023C4E901334FF47F4354
:10ABD000A381A37B23F00303A37370BD617B29448E
:10ABE000C9B2304600F0A7FB0135E5E74C2D002047
:10ABF00037B58378417B044600252048CDE90055D0
:10AC00008DF8023000F080FBB8B1237BA278019070
:10AC100003EB83039B0068468DF80220ADF80030FB
:10AC2000FFF7B2FF2346626833F8080B6946FFF767
:10AC30000AFF072815D002D878B1032011E01128A7
:10AC400011D08628F9D1A37B23F0030343F001033D
:10AC5000A3730B4B01221A7003E0A37B23F00303C1
:10AC6000A37303B030BDA37B23F0030343F00203BF
:10AC7000A373034B01221A702846F2E74C2D0020E3
:10AC8000492D0020F0B5364DC368AA68934287B0BD
:10AC9000074619D0AA69934218D1012405EB041084
:10ACA0003B78304E092B13D0132B30D0082B30D1EA
:10ACB0007C7A74BB78B3FFF77BFF3846FFF755FF0C
:10ACC00033787BB907B0F0BD0024E7E70020E7E761
:10ACD0007C7AF4B9F8B1837B846043F00203837318
:10ACE00001233370AB7B980717D51D48FFF780FF12
:10ACF000D0B90123AA7F910702D4D2072BD554B330
:10AD00001948FFF775FF0028DCD001230DE001246E
:10AD1000D3E70024D1E70446CFE713F00103E9D0DD
:10AD2000002CE2D12346E5E700231B018628EB5ADD
:10AD3000ADF808304FF6FF720EBF062307230390CD
:10AD400001A8ADF806200CBF8DF804308DF8043052
:10AD5000FFF70BFFB6E7002BB4D13370B2E700BFAB
:10AD60005C2D0020492D00206C2D0020FFF7BDBE7A
:10AD70000023FFF7DDBD00002DE9F84381460E46B4
:10AD800014461F46002B5CD0CB1F012B02D9072095
:10AD9000BDE8F883531E012BF9D8FFF7B5FE054631
:10ADA0000028F4D031464846FFF7C6FE804650BB27
:10ADB000FF214FF6FF70FFF7BFFE804608B3A0F8F3
:10ADC0000090867098F80D30FF2B21D121461F4846
:10ADD00000F0C6FAFF2888F80D001AD14FF6FF736D
:10ADE000A8F800300023C8E901334FF47F43A8F8E6
:10ADF0000C3098F80E3088F8020023F0030388F82E
:10AE00000E301120C4E7037BA342DBD00F20BFE745
:10AE1000002588F80C4098F80D100C4800F074FAE2
:10AE200088B104EB84042401A4B2A408BE70786045
:10AE30003C8025B1082E02D1A400063C848000206D
:10AE4000A6E70E20A4E70320A2E700BF4C2D0020B8
:10AE500038B5FFF771FE054660B1406810B1FFF7E5
:10AE6000E7FD28B900242846FFF7A2FE204638BD9A
:10AE70000324F8E70524F9E737B5002405460194D3
:10AE800001A9FFF747FE58B93CB92846FFF731FE44
:10AE9000044610B1072818BF0324204603B030BD74
:10AEA00081782846FFF7D4FF10B1052818BF032486
:10AEB000019B0133019301A92846E2E7CB1F012B37
:10AEC00073B50E4621D8FFF737FE0446F8B1456842
:10AED000FDB9417B104800F017FACDE900558DF817
:10AEE000026078B1237B019003EB83039B006846EB
:10AEF000ADF80030FFF748FE211D6846FFF782FDE0
:10AF0000092800D1032002B070BD0720FBE705200F
:10AF1000F9E70020F7E700BF4C2D002038B5CB1F24
:10AF2000012B0C46154608D8FFF706FE38B1058000
:10AF30008470BDE83840FFF75BBE072038BD0520B0
:10AF4000FCE7FFF7E3BDFFF7E3BD07B513889B0000
:10AF5000019301ABFFF7ECFC03B05DF804FB134673
:10AF60000022FFF770BD10B54FF6FF7304469C42F8
:10AF700008460AD14FF4807100F065FAB0F5807F81
:10AF8000044609D14FF6FF7406E0FF2CFAD821469B
:10AF900000F016FA0028F5D0204610BD0149FFF751
:10AFA000E2BF00BF7C2D00204FF6FF73984210B522
:10AFB000044606D00449FFF7D6FF231A58425841E9
:10AFC00010BD0020FCE700BF9C2D0020FF2810B51D
:10AFD000044609D80146054800F018FA21460448FD
:10AFE000BDE8104000F012BA10BD00BF7C2D00205B
:10AFF0009C2D0020FF28014602D8024800F057BAD5
:10B00000002070477C2D0020FF28014602D802480E
:10B0100000F04DBA002070479C2D002038B54FF647
:10B02000FF73984218BF01300D4614BF84B200244C
:10B03000FF2C03D94FF6FF74204638BD2146284621
:10B0400000F035FA0028F7D10134A4B2F0E700008F
:10B0500070B50B490A4EFFF7E1FF4FF6FF75044646
:10B06000AC4201D1204670BD2046FFF7CDFF00283D
:10B07000F8D020463146FFF7D1FF0446F0E700BF85
:10B080007C2D00200149FFF7C9BF00BF9C2D002087
:10B09000F8B5074D074E074600243378A34200DC7D
:10B0A000F8BD55F8043B384698470134F5E700BF32
:10B0B000C42D0020D32D0020074B1B7810B504466B
:10B0C0004BB1FFF767FB204600F0A8FE2046BDE825
:10B0D0001040FFF74FB810BDD22D002008B1FFF788
:10B0E000D7BF7047FFF7D4BFFFF7D2BF2DE9F04FAE
:10B0F0001C462C4B1B7887B083468A469146002B12
:10B100004ED04FF6FF70FFF71CFF01230025ADF86E
:10B11000103004AA03AB062106460395ADF8125081
:10B120000593FFF712FF072836D04FF6FF78434606
:10B130004FF0FF37E0B1052818D04FF6FF72964266
:10B140002CD1BBF1000F01D0ABF80030BAF1000FE9
:10B1500001D0CAF80050B9F1000F01D0A9F8008061
:10B1600004B12760002007B0BDE8F08F00220392F1
:10B17000039AAA4224BF334615463046BA423CBF22
:10B18000B04617460193FFF7DCFE04AA06210646E7
:10B19000FFF7DBFE019BCDE70520E4E70320E2E7B4
:10B1A0000820E0E7D22D002008B500231A46064902
:10B1B0000648FFF79BFF28B1431F58425841044BF4
:10B1C000187008BD0120FAE7BC2D0020D02D00200A
:10B1D000D42D0020F0B5044687B08088FFF70CFA24
:10B1E00023786080083B032B20D8DFE803F002219E
:10B1F0003166637A5BB93F4A116851B1E0688142B8
:10B2000007D113603C4AA1881180E3600EE0012B56
:10B210000CD13A4B1B784BB1374BA2881B889A4212
:10B2200004D1237A062B01D1FFF7BEFF20465DE053
:10B23000637A002BFAD12F4A11680029F6D0E06812
:10B240008142F3D12E4913600A68013A0A60DCE7B3
:10B250002C4F3B7873B90125284B1B7833B1264B13
:10B26000A2881B889A4201D1FFF79EFF002DDDD1F5
:10B2700007B0F0BD4FF6FF70FFF763FE4FF6FF73A8
:10B2800098420546E7D1FFF75EFEA8420646E2D1A6
:10B2900000251422294601A83D7001F081F90C23F4
:10B2A00020468DF80430ADF80860ADF80660FFF771
:10B2B000EFFE01A8FFF7ECFECEE7124B1A78002A4A
:10B2C000B4D00021142201A8197001F069F90D23EE
:10B2D0008DF804304FF6FF73ADF80830ADF8063046
:10B2E0002046A3680393FFF7D3FE01A8FFF7D0FE23
:10B2F000BEE700BFD82D0020D02D0020D42D002087
:10B30000BC2D0020C02D002038B50C46054608B9DC
:10B31000002038BD0368002BFAD040680028F7D021
:10B32000FF29F5D000F0C3F80028F1D0EB682868B9
:10B3300003FB0400EDE738B5054680B1036873B13F
:10B34000406860B1FF290AD08CB2214600F0AFF806
:10B3500028B121466868BDE8384000F057B838BDCC
:10B360002DE9F0418846064618B9FF242046BDE87D
:10B37000F0810368002BF8D04368002BF5D000273C
:10B38000FF24B368FDB2AB42EFD92946706800F0E4
:10B3900017F840B1FF2C08BF2C462D1B0135454541
:10B3A000E4D00137EDE7FF2C07D1FF24F9E7214670
:10B3B0003046FFF7C0FF0134E4B2AC42F7D3F4E704
:10B3C0002DE9F3410546D8B1CF0801F007044FF04D
:10B3D000010808FA04F4C65DE4B2264014D10DF168
:10B3E00007008DF80760FBF709FEEB5D9DF807008D
:10B3F0001C4205BF1C43EC5535464546FBF722FE73
:10B40000284602B0BDE8F0810025F9E773B505468E
:10B41000B8B1C1F3C70401F0070301269E40035DE4
:10B4200033420ED000230DF107008DF80730FBF7F3
:10B43000E5FD2B5D9DF8070023EA06062E55FBF778
:10B4400001FE02B070BD2DE9F74F0E46824630B1C5
:10B450004FF000090127B1451FFA89F804D1B04621
:10B46000404603B0BDE8F08F4FEAD80B08F0070460
:10B4700007FA04F41AF80B50E4B2254002D009F19F
:10B480000109E8E70DF107008DF80750FBF7B6FD5D
:10B490001AF80B309DF807001C4202BF1C430AF843
:10B4A0000B400125FBF7CEFD002DE8D0D8E758B1C1
:10B4B000CB0801F00701C25C012303FA01F10A4243
:10B4C00014BF184600207047012070477EDF704788
:10B4D0007FDF704786DF704710B504464088FFF76E
:10B4E00063F8A0802046BDE8104000F037BC10B5DE
:10B4F00086B004461422002101A801F051F804236B
:10B500000DEB03008DF80430ADF80640FFF7E4FFC3
:10B5100006B010BD30B587B005460C461422002198
:10B5200001A801F03DF8072301A88DF80430ADF81B
:10B5300006500394FFF7D0FF07B030BDF0B587B0D9
:10B5400004460F4616460021142201A81D4601F0AC
:10B5500027F803238DF80430094BADF8064000228C
:10B5600019788DF80C702046ADF80E608DF81050EB
:10B57000FEF776FC01A8FFF7AFFF07B0F0BD00BFF4
:10B58000BA22002030B5144B0A1C87B00C4618BFF5
:10B59000012219780546FEF763FC631E5A425A41A0
:10B5A0000E4B28461978FEF75BFC0D4B28461978A0
:10B5B0000022FEF755FC1422002101A800F0F0FF44
:10B5C000012301A88DF80430ADF806508DF80C4029
:10B5D000FFF782FF07B030BDBD220020BB22002054
:10B5E000BC2200201F4B2DE9F0410E46197804467D
:10B5F0001746FEF71DFC014680B32046FEF7D4FF38
:10B60000194B054619782046FEF712FC174B002807
:10B610001978204614BF4FF001084FF00208FEF7DA
:10B6200007FC50B12846FFF74BF83B4632464146EF
:10B630002046BDE8F041FFF781BF4FF6FF739D4202
:10B64000F3D007212846FFF703FC01460028ECD081
:10B650000528EAD02046FFF75DFFE6E73B46324685
:10B66000E6E700BFBD220020BB220020BC22002054
:10B670002DE9F04F8BB0934605468946FEF7BAFB9D
:10B68000564C074621782846FEF7D2FB20228246F8
:10B69000002102A800F084FF012FA0460CD1504BDE
:10B6A000002219782846FEF7DBFBB9F1000F09D11B
:10B6B00085274FF6FF763DE0002F40F0878043F26C
:10B6C00002044FE099F80030DB070CD4454BCDF86D
:10B6D00014B009934FF6FF76012F4FF0000729D0E1
:10B6E00002AB002228E02846FEF75EFF4FF6FF730C
:10B6F0009842064604460CD1FFF738FBA0420646A6
:10B7000034D10324BAF1000F2CD03046FEF7D8FF15
:10B7100028E0012F2CD1324C28462178FEF788FBF7
:10B7200030BB2846FFF7E3FE21782846FEF780FB72
:10B73000F0B9852702AB4A4639462846FFF7C8FECE
:10B7400004460028DED1002FDCD1BAF1000F09D069
:10B7500098F8001028460122FEF782FB3146284661
:10B76000FEF7A0FF20460BB0BDE8F08F4FF0010AB6
:10B770006B46012207213046FFF7FEFA11280446E6
:10B78000C0D0002CBDD121465022019800F008FF06
:10B7900001990B46284603F8347B029301F1180304
:10B7A00006934B1C079311310E4BCDF814B009933F
:10B7B000FEF70AFF0028A4D107213046FFF77EFBE1
:10B7C000052804469DD000289CD185E7B9F1000FDB
:10B7D0007FF478AF85274FF6FF7681E7BC22002003
:10B7E000B9220020DC2D002038B505460C46FEF7B6
:10B7F00001FB012806D144B121462846BDE8384066
:10B80000FFF764BE43F2020038BD2046FCE70000AB
:10B810002DE9F0410388113B88B00446092B71D80B
:10B82000DFE813F00A0070001F004700700070008E
:10B830007000700097001501037A84883D2B9A4BA5
:10B840002046197841F23D0518BF4FF48855FEF7A0
:10B85000EFFA002856D0002229462046FFF7C2FE04
:10B8600050E08088FEF7C6FA012802460FD1237AFD
:10B87000A58813F0010F8C4B14BF012602261978FE
:10B880002846FEF7EDFA31462846FFF77BFE34F8EE
:10B89000045F1422002103A800F082FE0434052373
:10B8A0008DF80C30ADF80E50059403A8FFF714FE88
:10B8B00028E000F110063046FEF7D3FE4FF6FF7386
:10B8C00098420546A08820D1FEF76EFE0546764BCD
:10B8D000A788197801223846FEF7C2FA00213846B7
:10B8E000FFF750FE4FF6FF739D4212D10025002353
:10B8F00029461A46A088FFF7EDFD0146F8B1A08859
:10B90000FFF708FE08B0BDE8F0812946FEF7CAFE41
:10B91000DDE703AA07212846FFF72AFA0028E5D128
:10B92000049D95F84430DB0701D53435DFE7314617
:10B9300005F14600FEF781FE0028F6D1D6E7002D7E
:10B94000E0D1A0882B4641F206022946FFF7F6FD1A
:10B95000D8E7057A8688DFF85081002D68D1304617
:10B96000FEF722FE98F8001007462A463046FEF7FA
:10B9700077FA637A13F004084DD0072101AB012256
:10B980003846FFF7F9F9014690B13046FFF7C2FD9E
:10B9900002238DF80C30637AADF80E6013F0040FBB
:10B9A00014BF012302238DF814308DF815507CE765
:10B9B0004FF6FF710298FEF7D9FD4FF6FF739842DC
:10B9C000804665D0394D01463046FEF76BFE29783A
:10B9D0003046FEF72DFA002864D13046FFF787FD88
:10B9E00029783046FEF724FA054600285AD1304B14
:10B9F00030461978FEF71CFA0028C9D03846FEF701
:10BA00005FFEC5E73046FFF785FD00254FF6FF7363
:10BA10009845ECD1BCE7264B30461978FEF708FA7A
:10BA200005460028B4D03846FEF74AFE4546AFE743
:10BA3000447A98F80010304604F00304FEF7F8F951
:10BA400000283FF45FAF22462946304606E7194BEF
:10BA500080881978FEF7ECF9054600287FF452AF8C
:10BA6000A088FEF7D7F90146A08819B9012341F251
:10BA700006026BE70C4B2A461978FEF7F1F9022310
:10BA80008DF80C30A388ADF80E30ADF814500CE7EB
:10BA90003A4607213846FFF741FA01460028B1D15E
:10BAA0000125B3E74246F4E7BA220020B92200207C
:10BAB000BC220020BD22002070B586B006460C4690
:10BAC00015460021142201A800F06AFD3046ADF8A9
